{
  "transactions": [
    {
      "hash": "0x4d83e5ba7058a355f317cf4893a41a1ec1f8a08e29615088674308422739123d",
      "transactionType": "CREATE",
      "contractName": "CLPoolParametersHelper",
      "contractAddress": "0x5823bBdEaF6e7e91FE6632187d6775507ed63317",
      "function": null,
      "arguments": null,
      "transaction": {
        "type": "0x02",
        "from": "0x49a8263044b8f24f316d19a79d1bac55f6f35b35",
        "gas": "0x1f7c7",
        "data": "0x60d3610034600b8282823980515f1a60731461002857634e487b7160e01b5f525f60045260245ffd5b305f52607381538281f3fe73000000000000000000000000000000000000000030146080604052600436106032575f3560e01c8063467be3eb146036575b5f80fd5b605a6041366004606c565b60101b64ffffff00001664ffffff000019919091161790565b60405190815260200160405180910390f35b5f8060408385031215607c575f80fd5b8235915060208301358060020b81146092575f80fd5b80915050925092905056fea26469706673582212202999f1990c6b8ceab29bb154ad3e1462c7b1d4d890ba4c2d62e7818fd50836ff64736f6c63430008180033",
        "nonce": "0x8",
        "accessList": []
      },
      "additionalContracts": [],
      "isFixedGasLimit": false
    },
    {
      "hash": "0x70a584fd59d888f22079b9f838ffca661c05be8cd88a42b429f955d007bf9a4e",
      "transactionType": "CALL",
      "contractName": null,
      "contractAddress": "0x76B97C7Af48A715b3CE9Fc3F11e43903F90040d7",
      "function": "initialize((address,address,address,address,uint24,bytes32),uint160,bytes)",
      "arguments": [
        "(0x1c7D4B196Cb0C7B01d743Fbc6116a902379C7238, 0xCE252C063B7C66417934C85c177AE61Bf0e9858a, 0x58472AD868B678749d801404930DBF8f85442F5B, 0x76B97C7Af48A715b3CE9Fc3F11e43903F90040d7, 0, 0x00000000000000000000000000000000000000000000000000000000000a0038)",
        "79228162514264337593543950336",
        "0x"
      ],
      "transaction": {
        "type": "0x02",
        "from": "0x49a8263044b8f24f316d19a79d1bac55f6f35b35",
        "to": "0x76b97c7af48a715b3ce9fc3f11e43903f90040d7",
        "gas": "0x142f9",
        "value": "0x0",
        "data": "0x222bb36b0000000000000000000000001c7d4b196cb0c7b01d743fbc6116a902379c7238000000000000000000000000ce252c063b7c66417934c85c177ae61bf0e9858a00000000000000000000000058472ad868b678749d801404930dbf8f85442f5b00000000000000000000000076b97c7af48a715b3ce9fc3f11e43903f90040d7000000000000000000000000000000000000000000000000000000000000000000000000000000000000000000000000000000000000000000000000000a0038000000000000000000000000000000000000000100000000000000000000000000000000000000000000000000000000000000000000000000000000000001000000000000000000000000000000000000000000000000000000000000000000",
        "nonce": "0x9",
        "accessList": []
      },
      "additionalContracts": [],
      "isFixedGasLimit": false
    }
  ],
  "receipts": [
    {
      "transactionHash": "0x4d83e5ba7058a355f317cf4893a41a1ec1f8a08e29615088674308422739123d",
      "transactionIndex": "0xc",
      "blockHash": "0xb8ef8e33a7a80e76ba918c11b2439f23ad725055e57e0a25e0104b9187e65a4e",
      "blockNumber": "0x53e94a",
      "from": "0x49A8263044b8f24F316D19a79D1bac55F6f35B35",
      "to": null,
      "cumulativeGasUsed": "0x2d9627",
      "gasUsed": "0x18386",
      "contractAddress": "0x5823bBdEaF6e7e91FE6632187d6775507ed63317",
      "logs": [],
      "status": "0x1",
      "logsBloom": "0x00000000000000000000000000000000000000000000000000000000000000000000000000000000000000000000000000000000000000000000000000000000000000000000000000000000000000000000000000000000000000000000000000000000000000000000000000000000000000000000000000000000000000000000000000000000000000000000000000000000000000000000000000000000000000000000000000000000000000000000000000000000000000000000000000000000000000000000000000000000000000000000000000000000000000000000000000000000000000000000000000000000000000000000000000000000",
      "type": "0x2",
      "effectiveGasPrice": "0x324600f03"
    },
    {
      "transactionHash": "0x70a584fd59d888f22079b9f838ffca661c05be8cd88a42b429f955d007bf9a4e",
      "transactionIndex": "0x2a",
      "blockHash": "0x456329e8ab31ce0525f886f9e62d2ee63e668d007cae2fd88fb0aa6433866665",
      "blockNumber": "0x53e94b",
      "from": "0x49A8263044b8f24F316D19a79D1bac55F6f35B35",
      "to": "0x76B97C7Af48A715b3CE9Fc3F11e43903F90040d7",
      "cumulativeGasUsed": "0x161a73",
      "gasUsed": "0xe9d4",
      "contractAddress": null,
      "logs": [
        {
          "address": "0x76B97C7Af48A715b3CE9Fc3F11e43903F90040d7",
          "topics": [
            "0x3fd553db44f207b1f41348cfc4d251860814af9eadc470e8e7895e4d120511f4",
            "0x98cad52c2e3c67cd9c34dfdadb8b2ffb4e329032edf2b41235e0e472f6518953",
            "0x0000000000000000000000001c7d4b196cb0c7b01d743fbc6116a902379c7238",
            "0x000000000000000000000000ce252c063b7c66417934c85c177ae61bf0e9858a"
          ],
          "data": "0x0000000000000000000000000000000000000000000000000000000000000000000000000000000000000000000000000000000000000000000000000000000a00000000000000000000000058472ad868b678749d801404930dbf8f85442f5b",
          "blockHash": "0x456329e8ab31ce0525f886f9e62d2ee63e668d007cae2fd88fb0aa6433866665",
          "blockNumber": "0x53e94b",
          "transactionHash": "0x70a584fd59d888f22079b9f838ffca661c05be8cd88a42b429f955d007bf9a4e",
          "transactionIndex": "0x2a",
          "logIndex": "0xd",
          "removed": false
        }
      ],
      "status": "0x1",
      "logsBloom": "0x00000000000000000000100000000000000000000000000000000000000000000000000000000000000000000000000000000000000004000000000000000000100000000000000000000000000020000000000000000020000000000000000008000000000000000000100000000000000000000000000000008000800000000000000000400080000000000000000000000000000000000000000000000000000000000000000000000000000000000000008000000000000000000000000000000000000000000000000000000000000200000000000000000000000000040000000000000000000000000000000000000000000002000000000000000000",
      "type": "0x2",
      "effectiveGasPrice": "0x3106b0670"
    }
  ],
  "libraries": [
    "lib/pancake-v4-core/src/pool-cl/libraries/CLPoolParametersHelper.sol:CLPoolParametersHelper:0x5823bBdEaF6e7e91FE6632187d6775507ed63317"
  ],
  "pending": [],
  "returns": {},
  "timestamp": 1710611476,
  "chain": 11155111,
  "commit": "f33d72c"
}