{
  "transactions": [
    {
      "hash": null,
      "transactionType": "CREATE",
      "contractName": "CLPoolParametersHelper",
      "contractAddress": "0x5b73C5498c1E3b4dbA84de0F1833c4a029d90519",
      "function": null,
      "arguments": null,
      "transaction": {
        "type": "0x02",
        "from": "0x1804c8ab1f12e6bbf3894d4083f33e07309d1f38",
        "gas": "0x1f7c7",
        "data": "0x60d3610034600b8282823980515f1a60731461002857634e487b7160e01b5f525f60045260245ffd5b305f52607381538281f3fe73000000000000000000000000000000000000000030146080604052600436106032575f3560e01c8063467be3eb146036575b5f80fd5b605a6041366004606c565b60101b64ffffff00001664ffffff000019919091161790565b60405190815260200160405180910390f35b5f8060408385031215607c575f80fd5b8235915060208301358060020b81146092575f80fd5b80915050925092905056fea26469706673582212202999f1990c6b8ceab29bb154ad3e1462c7b1d4d890ba4c2d62e7818fd50836ff64736f6c63430008180033",
        "nonce": "0x0",
        "accessList": []
      },
      "additionalContracts": [],
      "isFixedGasLimit": false
    },
    {
      "hash": null,
      "transactionType": "CALL",
      "contractName": null,
      "contractAddress": "0x76B97C7Af48A715b3CE9Fc3F11e43903F90040d7",
      "function": "initialize((address,address,address,address,uint24,bytes32),uint160,bytes)",
      "arguments": [
        "(0x1c7D4B196Cb0C7B01d743Fbc6116a902379C7238, 0xCE252C063B7C66417934C85c177AE61Bf0e9858a, 0x58472AD868B678749d801404930DBF8f85442F5B, 0x76B97C7Af48A715b3CE9Fc3F11e43903F90040d7, 0, 0x00000000000000000000000000000000000000000000000000000000000a0038)",
        "79228162514264337593543950336",
        "0x"
      ],
      "transaction": {
        "type": "0x02",
        "from": "0x49a8263044b8f24f316d19a79d1bac55f6f35b35",
        "to": "0x76b97c7af48a715b3ce9fc3f11e43903f90040d7",
        "gas": "0x142f9",
        "value": "0x0",
        "data": "0x222bb36b0000000000000000000000001c7d4b196cb0c7b01d743fbc6116a902379c7238000000000000000000000000ce252c063b7c66417934c85c177ae61bf0e9858a00000000000000000000000058472ad868b678749d801404930dbf8f85442f5b00000000000000000000000076b97c7af48a715b3ce9fc3f11e43903f90040d7000000000000000000000000000000000000000000000000000000000000000000000000000000000000000000000000000000000000000000000000000a0038000000000000000000000000000000000000000100000000000000000000000000000000000000000000000000000000000000000000000000000000000001000000000000000000000000000000000000000000000000000000000000000000",
        "nonce": "0x8",
        "accessList": []
      },
      "additionalContracts": [],
      "isFixedGasLimit": false
    }
  ],
  "receipts": [],
  "libraries": [
    "lib/pancake-v4-core/src/pool-cl/libraries/CLPoolParametersHelper.sol:CLPoolParametersHelper:0x5b73C5498c1E3b4dbA84de0F1833c4a029d90519"
  ],
  "pending": [],
  "returns": {},
  "timestamp": 1710611126,
  "chain": 11155111,
  "commit": "f33d72c"
}